:020000040800F2
:1000000000000220B50200084D0300084F0300085D
:1000100000000000000000000000000000000000E0
:100020000000000000000000000000005103000874
:10003000000000000000000053030008290700082A
:10004000C9020008C9020008C9020008C902000864
:10005000C9020008C9020008C9020008C902000854
:10006000C9020008C9020008C9020008C902000844
:10007000C9020008C9020008C9020008C902000834
:10008000C9020008C9020008C9020008C902000824
:10009000C9020008C9020008C9020008C902000814
:1000A000C9020008C9020008C9020008C902000804
:1000B000C9020008C9020008C9020008C9020008F4
:1000C000C9020008C9020008C9020008C9020008E4
:1000D000C9020008C9020008C9020008C9020008D4
:1000E000C9020008C9020008C9020008C9020008C4
:1000F000C9020008C9020008C9020008C9020008B4
:10010000C9020008C9020008C9020008C9020008A3
:10011000C9020008C9020008C9020008C902000893
:10012000C9020008C9020008C9020008C902000883
:10013000000000000000000000000000C9020008EC
:10014000C9020008C9020008C90200080000000036
:1001500000000000C9020008C9020008C902000826
:10016000C9020008C90200080000000000000000E9
:10017000C9020008C90200080000000000000000D9
:100180000000000000000000C9020008C9020008C9
:10019000C9020008C9020008C902000800000000E6
:1001A00000B583B000F042F9304B314A1360314A58
:1001B0001360314B314A03E052F8041B43F8041B2F
:1001C0002F498B42F8D32A4B1A682E4B9A4200D003
:1001D000FEE7284B1A682C4B9A42F9D1234B2B4A45
:1001E00013602B4A13602B4B02E0002243F8042BD0
:1001F000294A9342F9D3254B1B6813B9244B1B683A
:1002000003B1FEE700F016F9694601A800F096F880
:10021000224C234BE41AA410002504E0204B53F891
:10022000253098470135AC42F8DC1E4C1E4BE41AD1
:10023000A410002504E01C4B53F8253098470135E5
:10024000AC42F8DC0099019800F020FA0546174C02
:10025000174BE41AA41004E0013C154B53F824306A
:100260009847002CF8DC284600F044F8BABADECAF9
:1002700000000020600000200000002004110008A1
:1002800064000020785634123254769864000020BE
:10029000040100206400002008010020F40200088E
:1002A000F4020008F4020008F4020008F402000856
:1002B000F402000808B5FFF773FF00BEFEE700BEBA
:0A02C000FEE700BEFEE77047FEE710
:1002CC000411000800000020640000200411000844
:1002DC000000001000000010640000200801002045
:0802EC000000001000000010EA
:1002F400FEE7000008B503460C4A12685AB10B4ADF
:100304001068033323F003030344094A934206D8D5
:10031400064A136008BD054A06491160EFE700F07C
:100324003FFA0C2303604FF0FF30F3E7680000202E
:1003340000FC01200801002001230360014B0B6035
:10034400704700BF040000207047FEE77047704705
:1003540021F0604121F07F010143024B9960BFF31A
:100364004F8F704700ED00E02DE9F04385B004465F
:100374000F4643563BBB042528462146ABDF0546C2
:10038400384605B0BDE8F08314F901CB03F110023F
:100394006A4402F810CC0133AB42F5D310336B44FA
:1003A400002203F8102C4FF00408E9464046494661
:1003B400ABDF8046761B002EE2D03546102E28BFD8
:1003C40010250023E8E70E46F5E708B5FFF7CCFF54
:1003D40008BD00000FB400B583B004AB53F8042B80
:1003E40001938021074800F0CDF9002804DC03B014
:1003F4005DF804EB04B0704701460248FFF7E5FFDF
:10040400F5E700BF7400002010B5044600F0DBF9E6
:1004140001462046FFF7D9FF01210248FFF7D5FF27
:1004240010BD00BF8410000808B500F07BF808BDBB
:1004340008B500F0BFF808BD354A136843F48033AB
:10044400136000230133324A126812F4003F03D1CF
:100454004FF6FF729342F5D12D4B1B6813F4003F06
:1004640000D1FEE72B4A136823F0070343F004038B
:100474001360274BDA6942F08052DA615A685A6095
:100484005A685A605A6842F480625A605A6822F480
:1004940040325A605A6842F440325A605A6822F034
:1004A400904222F470125A605A6842F0804242F438
:1004B40040125A601A6842F080721A60144B1B682A
:1004C40013F0007FFAD0144A136843F480331360A6
:1004D400114B5B6813F4803FFAD00F4A136843F45E
:1004E400003313600C4B5B6813F4003FFAD0084BE5
:1004F4005A6822F003025A605A6842F002025A60B3
:10050400034B5B6803F00C03082BF9D1704700BF61
:1005140000100240002002400070004008B5FFF7C0
:100524008BFF08BD10B582B0214A136843F0010364
:1005340013601F4B1B6813F0020FFAD01C4A536858
:1005440043F0800353600023019302E0019B0133D5
:100554000193019BFF2BF9D9154A536843F090038B
:1005640053600023019302E0019B01330193019B3B
:10057400FF2BF9D90E4B5A6822F003025A601A680D
:1005840022F0847222F480321A604FF41F029A60BF
:1005940000245C60DC621A6822F480221A60FFF78F
:1005A400BDFF21464FF00060FFF7D2FE02B010BD40
:1005B4000010024084B02E4B0FCB0DF1100C0CE94F
:1005C4000F002C4B5B68C3F38103012B17D0022B64
:1005D40019D01BB1284B294A1A6002E0264B274A3E
:1005E4001A60244B5B68C3F3031310336B4413F892
:1005F400101C214A1368CB40136004B070471E4B93
:100604001E4A1A60EDE71B4B5B6813F4803F0ED063
:10061400184BDB6A13F0804F07D11849154B5B6800
:1006240013F4003F04D0490802E01549F6E71549E0
:10063400104A5368C3F38343526812F0006F01D029
:1006440043F010030B4A526812F0804F0BD043F072
:100654002003A3F10F02312A00D8013301FB03F375
:10066400054A1360BDE70E2BF3D80233F6E700BF4B
:1006740088100008001002400C00002000127A00CC
:10068400006CDC0200093D0010B50A48FFF7BCFE0F
:10069400094B19680948FFF79DFE00F013F8002480
:1006A4004FF47A7000F02AF8013421460448FFF729
:1006B40091FEF5E7981000080C000020AC1000082B
:1006C400C41000080A4B1B680A4AA2FB03239B09B7
:1006D400013BB3F1807F0AD24FF0E0225361064B15
:1006E400F02183F8231000239361072313617047DB
:1006F4000C000020D34D621000ED00E0034B1860A5
:10070400024B1B68002BFBD1704700BFF400002094
:10071400034B1B681BB1024A1368013B136070470B
:10072400F400002008B5FFF7F3FF08BD30B5144608
:100734009BB005461A46002C05DA8B2303604FF064
:10074400FF301BB030BD4FF4027300910491694631
:10075400ADF80C3014BF04F1FF3323460293059324
:100764004FF6FF73ADF80E301E9B00F08FF8431C5C
:10077400BCBF8B232B60002CE3D0009B00221A709B
:10078400DFE7000007B5009313460A460146034815
:100794000068FFF7CBFF03B05DF804FB10000020F6
:1007A400014B1868704700BF100000200A44431E24
:1007B400914200D1704710B511F8014B914203F8F2
:1007C400014FF9D110BD034613F8012B002AFBD1C8
:1007D400181A013870472DE9F0471F468E68824683
:1007E4000C46BE4290460B682DD8B1F90C2012F489
:1007F400906F26D06569096905EB4505A3EB0109EE
:100804007B1C05EBD5754B446D109D4238BF1D46CE
:10081400530527D5294600F067FB064660B34A46D0
:100824002169FFF7C3FFA38923F4906343F0800396
:10083400A38126614E446561A5EB090526603E4609
:10084400A560BE4200D93E4632464146206800F0CB
:10085400B7FAA36800209B1BA3602368334423607A
:10086400BDE8F0872A4600F0C3FB06460028E0D125
:100874002169504600F0CCFA0C234FF0FF30CAF83F
:100884000030A38943F04003A381E9E72DE9F04F49
:1008940098468B899DB007461B060D46144610D515
:1008A4000B6973B9402100F01FFB2860286130B93F
:1008B4000C233B604FF0FF301DB0BDE8F08F4023A8
:1008C4006B610023CDF80C804FF00109DFF8A081A3
:1008D400099320238DF8293030238DF82A302346BC
:1008E4009A4613F8012B0AB1252AF9D1BAEB040B65
:1008F4000BD05B46224629463846FFF76CFF013091
:1009040000F0A780099A5A4409929AF80030002B03
:1009140000F09F8000234FF0FF320AF1010A049394
:1009240007938DF853301A93CDE9052354460522D5
:100934004F4814F8011B00F05DFA049AD8B9D006A8
:1009440044BF20238DF85330110744BF2B238DF867
:1009540053309AF800302A2B15D0079A54460020B9
:100964004FF00A0C214611F8013B303B092B4BD9BF
:10097400B0B1079214E0A0EB0803A24609FA03F30E
:1009840013430493D2E7039B191D1B68002B0391A7
:10099400BBBF5B4242F0020207930793B8BF0492C5
:1009A40023782E2B0AD163782A2B32D1039B02346D
:1009B4001A1D1B6843EAE37303920593DFF8B4A09E
:1009C40003222178504600F015FA38B1A0EB0A0052
:1009D4004022049B013482401343049314F8011B06
:1009E400062225488DF8281000F004FA002836D095
:1009F400224B1BBB039B073323F0070308330393EA
:100A0400099B334409936AE70CFB02320C4601202C
:100A1400A8E7002301344FF00A0C19460593204639
:100A240010F8012B303A092A03D9002BC6D00591BE
:100A3400C4E70CFB012104460123F0E703AB2A467B
:100A440004A9384600930E4BAFF30080421C0646BF
:100A5400D6D1AB895B063FF52DAF09982CE703ABE4
:100A64002A4604A938460093054B00F07DF8EDE7CB
:100A7400CF100008D5100008D910000800000000AD
:100A8400DB0700082DE9F047164698468A680746B2
:100A94000B690C46DDF820909342B8BF13463360CF
:100AA40091F843200AB1013333602368990642BFA9
:100AB400336802333360256815F0060506D104F166
:100AC400190AE36832689B1AAB422BDC94F8433072
:100AD4002268003B18BF0123920630D404F143027C
:100AE40041463846C847013023D023681A3454F8A5
:100AF4000A2C03F00603042B0ABF54F80E5C0025ED
:100B040033684FF0000608BFED1A54F8123C08BFD2
:100B140025EAE5759342C4BF9B1AED18B5421AD174
:100B2400002008E00123524641463846C8470130B8
:100B340003D14FF0FF30BDE8F0870135C1E7E1187C
:100B44005A1C30200233224481F8430094F84510A3
:100B540082F84310C2E70123224641463846C8477B
:100B64000130E6D00136D9E72DE9FF470F7E9146E3
:100B740080460C46782F9A460C9E01F1430207D812
:100B8400622F0AD8002F00F0DD80582F00F0C380B8
:100B940004F1420684F842703AE0A7F16303152B8E
:100BA400F6D801A151F823F0050C0008190C00082F
:100BB400950B0008950B0008950B0008950B000891
:100BC400190C0008950B0008950B0008950B0008FC
:100BD400950B00082F0D0008A70C0008E70C00086F
:100BE400950B0008950B0008510D0008950B0008A3
:100BF400A70C0008950B0008950B0008EF0C0008E3
:100C040033681A1D1B68326004F1420684F84230CE
:100C14000123A8E031682368081D30601E0601D551
:100C24000D6803E05D06FBD5B1F90050002D616845
:100C340078DA2D200029A16084F843002DDA6D4272
:100C44005D480A231646B5FBF3F103FB1157C75D54
:100C540006F8017D2F460D46BB42F4D9082B0BD173
:100C64002368DF0708D5236961689942DEBF302312
:100C740006F8013C06F1FF36921B22614B4603AA9B
:100C840021464046CDF800A0FFF7FCFE01306FD1AD
:100C94004FF0FF3004B0BDE8F08723F00403236075
:100CA400CDE721683368080653F8045B02D449068B
:100CB40048BFADB26F2F33603F4814BF0A230823E7
:100CC400002184F843106668002EA660BADB216810
:100CD40021F004012160002DB4D1002EB2D11646BA
:100CE400BCE7236843F02003236078273348236854
:100CF40084F845701F06316851F8045B02D45F061E
:100D040048BFADB23160D90744BF43F0200323602C
:100D14001DB11023D4E72848E9E7236823F0200312
:100D24002360F6E724480A23CDE733682568181DB5
:100D3400616930602E061B6801D5196002E06806FF
:100D4400FBD5198000231646236197E733680021F9
:100D54001A1D32601E686268304600F04BF808B114
:100D6400801B606063682361002384F8433085E757
:100D74002369324649464046D047013088D023682B
:100D84009B0714D4E068039B9842B8BF184681E7D8
:100D94000123324649464046D04701303FF478AFFC
:100DA4000135E36803995B1AAB42F1DCEAE70025FD
:100DB40004F11906F5E700BFE0100008F11000087F
:100DC400884210B501EB020402D98442234607D8B5
:100DD400431EA14208D011F8012B03F8012FF8E7B4
:100DE400024401468A4200D110BD13F8014D02F8B5
:100DF400014DF7E7C9B20346024410B593421846C1
:100E040001D1002003E0047801338C42F6D110BDF7
:100E140038B50546002941D051F8043C0C1F002B7D
:100E2400B8BFE41800F0D8F81D4A136833B96360FA
:100E340014602846BDE8384000F0D4B8A34208D96D
:100E4400206821188B4201BF19685B68091821606A
:100E5400EDE71A465B680BB1A342FAD91168501842
:100E6400A0420BD120680144501811608342E0D1A4
:100E740018685B68084453601060DAE702D90C23F1
:100E84002B60D6E7206821188B4202BF19685B6883
:100E94000918636008BF21605460CAE738BD00BF09
:100EA400FC00002070B50F4E0C460546316811B9A0
:100EB40000F0CCF830602146284600F0C7F8431C07
:100EC40003D14FF0FF34204670BDC41C24F003044A
:100ED400A042F8D0211A284600F0B8F80130F2D127
:100EE400EFE700BFF80000202DE9F041CD1C0646D5
:100EF40025F0030508350C2D38BF0C25002D01DB2A
:100F0400A94204D90C2333600020BDE8F081314F9D
:100F140000F062F83B681C4644BB29463046FFF7A4
:100F2400C1FF431C044650D13C682146002941D1ED
:100F3400002C44D02368304604EB030800F086F804
:100F440080453CD1216830466D1A2946FFF7AAFF37
:100F5400013034D023682B4423603B68002B36D007
:100F64005A68A24229D100225A600EE02268521B1C
:100F74001DD40B2A16D96119A342256018BF5960E4
:100F8400636808BF396062514B60304600F02AF84C
:100F940004F10B00231D20F00700C21AB5D01B1A60
:100FA400A350B2E7A3426268DED13A60EDE723467C
:100FB4006468B1E70C464968B8E71346CEE70C23EA
:100FC4003046336000F00EF89EE70560DDE75B60B5
:100FD400FFDE00BFFC000020014800F047B800BF5E
:100FE40000010020014800F042B800BF00010020C9
:100FF4002DE9F041804615460C4621B91146BDE85D
:10100400F041FFF771BF2AB9FFF702FF0024204621
:10101400BDE8F08100F02CF88542064602D8B5EB15
:10102400500FF4D829464046FFF75EFF07460028D4
:10103400ECD0B5422A46214628BF3246FFF7B6FB1C
:10104400214640463C46FFF7E3FEE0E738B500237F
:10105400054D044608462B60FFF74CF9431C02D1AA
:101064002B6803B1236038BD7000002070477047BF
:1010740051F8043C181F002BBCBF0B58C018704714
:101084000A00000000000000000000000102030448
:101094000607080948656C6C6F2041726D20576F14
:1010A400726C64210000000053797374656D2063D1
:1010B4006C6F636B3A20257520487A0A00000000A3
:1010C4005365636F6E642025640A00232D302B2042
:1010D40000686C4C00656667454647003031323322
:1010E400343536373839414243444546003031328D
:0E10F40033343536373839616263646566001F
:10110400785634126C000020000000000095BA0AE2
:10111400140000200000000000000000680000002F
:10112400D0000000000000000000000000000000EB
:1011340000000000000000000000000000000000AB
:10114400000000000000000000000000000000009B
:10115400000000000000000000000000000000008B
:0411640032547698F3
:04000005080001A14D
:00000001FF
