:020000040800F2
:1000000000800020CD010008D3010008D7010008BE
:1000100000000000000000000000000000000000E0
:100020000000000000000000000000000D020008B9
:100030000000000000000000110200089106000806
:100040001D020008000000001D0200081D0200083B
:100050001D0200081D0200081D0200081D02000804
:10006000000000001D0200081D0200081D0200081B
:100070001D0200081D0200081D020008000000000B
:100080001D0200081D0200081D0200081D020008D4
:100090001D0200081D0200081D0200081D020008C4
:1000A0001D0200081D0200081D0200081D020008B4
:1000B0001D0200081D02000830B583B000F094F95D
:1000C000304B314A1A60314B1A60314B314A01E0F2
:1000D00002CA02C330498B42FAD32A4B1A682F4B0B
:1000E0009A4200D0FEE7294B1A682D4B9A42F9D16B
:1000F0002C4B254A1A602C4B1A602C4B01E0002235
:1001000004C32B4A9342FAD3264B1B68002B03D11E
:10011000254B1B68002B00D0FEE700F069F969460B
:1001200001A800F0B7F8234B234A9C1AA41000251D
:1001300004E0214BAA00D35898470135AC42F8DCC3
:100140001E4B1F4A9C1AA410002504E01C4BAA0059
:10015000D35898470135AC42F8DC0099019800F07B
:100160003BFA0500174B184A9C1AA41004E0013C06
:10017000154BA200D3589847002CF8DC280000F05B
:1001800063F8C04600000020BABADECA6000002052
:10019000000000202C120008640000207856341261
:1001A000325476986400002004010020640000208E
:1001B0000801002048020008480200084802000820
:1001C00048020008480200084802000810B5FFF77E
:1001D00073FF00BEFEE704207146084202D0EFF331
:1001E000098001E0EFF3088071460B4A104770B5B3
:1001F00004000D00044800F08BF82900200000F0F6
:10020000AFF800BEFEE7C046A011000800BEFEE742
:0E02100000BEFEE770470000EF010008FEE7A9
:100220002C12000800000020640000202C1200089E
:1002300000000010000000106400002008010020F1
:08024000000000100000001096
:10024800FEE7000010B503000D4A1268002A0BD023
:100258000B4A1068033303229343C318094A934295
:1002680006D8074A136010BD054A07491160EFE731
:1002780000F0D2FA0C23036001204042F3E7C046A5
:1002880068000020007C0020080100200123036092
:10029800014B0B607047C04604000020F0B5CE4605
:1002A800474680B585B0040088464356002B24D1C4
:1002B8000425281C211CABBE051C404605B0C0BC4B
:1002C800B946B046F0BD0022A2566946CA54013369
:1002D8000134AB42F7D3E94600224946CA54042701
:1002E800381C4946ABBE071C761B002EE5D03500EE
:1002F800102E00D910250023EBE70E00F5E710B506
:10030800FFF7CCFF10BD00000FB400B583B004ABFD
:1003180004CB01930748802100F072FA002803DC1F
:1003280003B008BC04B01847024B01001800FFF7DF
:10033800E6FFF5E77400002010B5040000F07BFA32
:1003480001002000FFF7DBFF02480121FFF7D7FF7C
:1003580010BDC046FC10000870B504000D0015481B
:10036800FFF7D2FF21681448FFF7CEFF61681348F2
:10037800FFF7CAFFA1681248FFF7C6FFE1681148F6
:10038800FFF7C2FF21691048FFF7BEFF61690F48F8
:10039800FFF7BAFFA1690E48FFF7B6FFE1690D48FC
:1003A800FFF7B2FF0C48FFF7AFFF0C482900FFF733
:1003B800ABFF70BDF0100008001100081011000814
:1003C80020110008301100084011000850110008E1
:1003D80060110008701100088011000888110008D9
:1003E80010B500F061F810BD10B500F097F810BD19
:1003F800264A116880235B020B4313600022802386
:100408005B029A4205D2214B1B689B0301D401323F
:10041800F5E71E4B1B689B0337D51D4B1968102247
:100428000A431A60196807229143063A0A431A6078
:10043800164B5968F022914359605968154A0A4089
:100448005A605968144A1140802252020A435A607D
:100458005968124A1140802252030A435A601968A7
:10046800802252040A431A60084B1B689B01FBD583
:1004780006494A6803239A43013B13434B60034BE5
:100488005B681B079B0F022BF9D1704700100240D5
:1004980000200240FFF8FFFFFF7FFEFFFFFFC3FFC2
:1004A80010B5FFF7A5FF10BD10B5154B1868012151
:1004B80002000A431A605A68124802405A601A68D1
:1004C800114802401A601868104A02401A605A68B7
:1004D8000F4802405A605A680F2082435A601A6BCC
:1004E8000C4802401A63586B02008A435A63002280
:1004F8009A60FFF7D5FF084B802212059A6010BD5D
:10050800001002400CB8FF08FFFFF6FEFFFFFBFFDC
:10051800FFFFC0FFACFEFFFF00ED00E030B585B087
:100528006A46274B180038C838C203681360254B41
:100538005B681B079B0F012B16D0022B18D0002BD2
:1005480003D0214B214A1A6002E01F4B1F4A1A6050
:100558001C4B5B681B061B0F6A46D15C1A4A136862
:10056800CB40136005B030BD174B184A1A60EFE74F
:10057800144A53689B021B0F02335268D203920F2E
:10058800022A09D05901C91A8A01521AD200D3186D
:100598001A020D4B1A60DBE75801C01A8101091ACB
:1005A800C900CB185902084B1960064B5B689B03BE
:1005B800DB0F9342CCD1044B49081960C8E7C04609
:1005C800B0110008001002400C00002000127A0050
:1005D80010B50A48FFF7B0FE094B19680948FFF73C
:1005E80093FE00F02FF80024FA20800000F036F87F
:1005F800013405482100FFF787FEF5E7C011000820
:100608000C000020D4110008EC11000801388023E8
:100618005B0498420FD2094A50600948036A1B02DA
:100628001B0AC02109060B430362002393600733AA
:100638001360002070470120FCE7C04610E000E08E
:1006480000ED00E010B5044B1868FA21890000F0AD
:100658001FF8FFF7DBFF10BD0C000020034B1860EC
:10066800024B1B68002BFBD17047C046F4000020EA
:10067800044B1B68002B03D0024A1368013B13602C
:100688007047C046F400002010B5FFF7F1FF10BD19
:10069800002243088B4274D303098B425FD3030AB9
:1006A8008B4244D3030B8B4228D3030C8B420DD3CC
:1006B800FF22090212BA030C8B4202D3121209025A
:1006C80065D0030B8B4219D300E0090AC30B8B4298
:1006D80001D3CB03C01A5241830B8B4201D38B0346
:1006E800C01A5241430B8B4201D34B03C01A5241EB
:1006F800030B8B4201D30B03C01A5241C30A8B422E
:1007080001D3CB02C01A5241830A8B4201D38B0218
:10071800C01A5241430A8B4201D34B02C01A5241BC
:10072800030A8B4201D30B02C01A5241CDD2C3092E
:100738008B4201D3CB01C01A524183098B4201D3AA
:100748008B01C01A524143098B4201D34B01C01A95
:10075800524103098B4201D30B01C01A5241C3080D
:100768008B4201D3CB00C01A524183088B4201D37C
:100778008B00C01A524143088B4201D34B00C01A68
:100788005241411A00D20146524110467047FFE7D4
:1007980001B5002000F006F802BDC0460029F7D0D8
:1007A80076E770477047C04630B5140005001A0058
:1007B8009BB0002C05DA8B230360012040421BB05C
:1007C80030BD822368469B008381002300910491F9
:1007D8009C4200D0631E02930593012369465B4245
:1007E800CB8128001E9B00F08DF8431C01DA8B2377
:1007F8002B60002CE3D00022009B1A70DFE700007A
:1008080013B5044C009313000A0001002068FFF799
:10081800CBFF16BD10000020014B18687047C0467A
:1008280010000020002310B59A4200D110BDCC5C06
:10083800C4540133F8E70023C25C0133002AFBD11A
:10084800581E7047F0B58E6885B01F000C000B6805
:1008580002900392BE4230D80C21625E9021C900FA
:100868000A4228D0032021695B1A01936369434334
:100878000198DD0FED187B1C1B186D10AB4200D9D9
:100888001D00520528D52900029800F04DFB061ED0
:100898002CD0019A2169FFF7C5FFA289184B1A408D
:1008A80080231343A381019B2661F61826603E002E
:1008B8006561ED1AA560BE4200D93E003200039979
:1008C800206800F0A7FA0020A3689B1BA360236898
:1008D8009B19236005B0F0BD2A00029800F0AEFB1A
:1008E800061EE0D12169029800F0B2FA0C2301201B
:1008F800029A40421360A28934331343A381E9E783
:100908007FFBFFFFF0B5A1B003901D008B890F009E
:1009180016001B0611D50B69002B0ED1402100F0E3
:1009280003FB38603861002805D10C23039A136053
:1009380001204042CFE040237B61002308AC636183
:10094800203363761033A376079535002B78002B78
:1009580001D0252B48D1AB1B0593B5420BD03200F3
:1009680039000398FFF76EFF013000D1AEE06369EC
:10097800059A9B1863612B78002B00D1A6E0012211
:1009880000235242626004A9543252186E1C23603C
:10099800E360A3601370A365544B052218003178F7
:1009A800059300F04AFA751C00281FD12268D30667
:1009B80004D5532304A95B1820211970130704D503
:1009C800532304A95B182B21197033782A2B16D0CE
:1009D800350000210A20E3682A786E1C303A092A7B
:1009E80050D9002911D117E00135AFE7059B2268DE
:1009F800C01A0123834013432E002360CCE7079BD2
:100A0800191D1B680791002B01DB0B9304E05B4267
:100A1800E3600223134323602B782E2B0CD16B78D1
:100A28002A2B34D1079B02351A1D1B680792002B0D
:100A380001DA01235B4209932D4E03223000297805
:100A480000F0FBF9002806D04023801B8340226871
:100A58000135134323602978062226486E1C217627
:100A680000F0EBF9002838D0234B002B22D10722C5
:100A7800079B07339343083307936369049A9B18CA
:100A8800636162E74343350001219B18A4E7002313
:100A98000A201900013563602A786E1C303A092A49
:100AA80003D9002BC8D00991C6E74143350001237B
:100AB8008918F1E707AA009221003A000F4B039822
:100AC80000E000BF0490049B0133D6D1BB890D9888
:100AD8005B0600D52CE721B0F0BD07AA00922100E3
:100AE8003A00064B039800F07BF8EBE7F711000893
:100AF800FD11000801120008000000004D08000860
:100B0800F7B5160001938A680B690C0000909342B0
:100B180000DA13002200336043321278002A01D031
:100B28000133336023689B0602D533680233336090
:100B38002268062315001D401A4227D0230043339C
:100B48001B785A1E93412268920630D422000199DC
:100B58000098089D4332A847013025D00622236813
:100B680000251340042B05D13368E568ED1AEB43E3
:100B7800DB171D40A3682269934201DD9B1AED181B
:100B88000026B54220D1002010E00135E368326824
:100B98009B1AAB42D2DD2200012301990098089FDD
:100BA8001932B8470130F0D101204042FEBD302053
:100BB800E1184331087021005A1C45310978A21800
:100BC800433202331170C1E72200012301990098D2
:100BD800089F1A32B8470130E6D00136D1E7000045
:100BE800F0B58BB006920A00433207930590049241
:100BF8000A7E0C00109B782A09D8622A0BD8002A92
:100C080000D1C8E081490391582A00D19CE0250011
:100C180042352A7022E0100063381528F7D800F012
:100C280059FA16001F00F6FFF6FFF6FFF6FF1F0041
:100C3800F6FFF6FFF6FFF6FFAD004F008C00F6FF5B
:100C4800F6FFBE00F6FF4F00F6FFF6FF9000250006
:100C58001A684235111D196013682B700123ACE026
:100C680018680968021D0D061FD506681A60674ACC
:100C78000A2761680392002E35DA23002D204333BA
:100C88001870A160002916DA0A2776420392049D9B
:100C980030003900FFF782FD039B013D5B5C2B7040
:100CA800330006009F42F3D92AE006681A60490615
:100CB800DDD536B2DBE7042123688B432360E3E705
:100CC8000868196840C9050602D4400600D5B6B2BE
:100CD80019604E4B0A2703936F2A00D1023F230065
:100CE800002243331A706368A360002BCFDB042112
:100CF80022688A432260002EC9D1049D002BC6D1E8
:100D0800082F09D12368DB0706D5626823699A4250
:100D180002DC3023013D2B70049B5B1B2361079B86
:100D2800210000930598069B09AAFFF7E9FE013008
:100D380048D1012040420BB0F0BD202209680A4387
:100D48002260782232490391210045310A701968DE
:100D5800226840C9100602D4500600D5B6B2196000
:100D6800D30702D5202313432360002E01D0102778
:100D7800B5E72022236893432360F8E71A680D68D3
:100D8800101D4969186013682E0601D5196002E024
:100D98006D06FBD519800023049D2361BFE71A68FF
:100DA800111D1960156800212800626800F045F8D7
:100DB800002801D0401B6060636823610023049A07
:100DC8001370ACE72A00236906990598079DA84780
:100DD8000130AED023689B0715D4099BE068984280
:100DE800A9DA1800A7E72200012306990598079EAB
:100DF8001932B04701309CD00135E368099A9B1A33
:100E0800AB42F0DCE9E70025F7E7C0460812000826
:100E18001912000810B5884206D800239A4208D053
:100E2800CC5CC4540133F9E78B189842F5D2013AE7
:100E380000D210BD8B5C8354F9E7C9B28218904286
:100E480001D10020704703788B42FBD00130F6E7D0
:100E580070B505000C1E10D0043C2368002B00DA86
:100E6800E418280000F0DAF81D4A1368002B05D1B1
:100E780063601460280000F0D9F870BDA34208D957
:100E8800206821188B42F3D119685B680918216022
:100E9800EEE71A005B68002B01D0A342F9D911686C
:100EA8005018A0420BD120680918501811608342CD
:100EB800E0D118685B68411811605360DAE7A04216
:100EC80002D90C232B60D5E7206821188B4203D167
:100ED80019685B680918216063605460CAE7C046F6
:100EE800FC00002070B50F4E0D0031680400002989
:100EF80002D100F0D3F830602900200000F0CEF8CD
:100F0800431C03D101256D42280070BD0323C51C75
:100F18009D43A842F8D0291A200000F0BFF80130FC
:100F2800F2D1EFE7F80000200323F7B5CD1C9D436D
:100F3800083506000C2D34D20C25A94233D83000D0
:100F480000F06CF8344F3B681C00002C2FD12900AE
:100F58003000FFF7C7FF0400431C58D13C6821004C
:100F6800002949D1002C4CD023683000E3180193A4
:100F780000F094F8019B834243D123683000ED1AB6
:100F88002900FFF7AFFF01303BD023685B192360CE
:100F98003B68002B3DD05A68A24230D100225A60EB
:100FA80012E0002DC9DA0C2333600020FEBD216851
:100FB800491B1ED40B2917D962192560A34211D1E8
:100FC8003A60636811605360300000F02FF8200029
:100FD80007220B30231D9043C21A9842E6D01B1AF1
:100FE800A350E3E75A60ECE76268A342D7D13A60BE
:100FF800EAE723006468A8E70C004968B0E7130033
:10100800C7E70C233000336000F010F8CDE7056027
:10101800DAE75B60FFDEC046FC00002010B502483E
:1010280000F04EF810BDC0460001002010B502487F
:1010380000F047F810BDC04600010020F7B50600D3
:101048000C001500002905D11100FFF76DFF040001
:101058002000FEBD002A03D1FFF7FAFE0024F7E7BF
:1010680000F030F80700854202D84308AB42EFD3BE
:1010780029003000FFF758FF01900028EED02A0021
:10108800BD4200D93A0021000198FFF7CBFB2100AF
:101098003000FFF7DDFE019CDAE70000002370B5A1
:1010A800064D040008002B60FFF7CCF8431C03D161
:1010B8002B68002B00D0236070BDC0467000002054
:1010C800704770470B1F1B68181F002B01DA0B585D
:1010D800C018704703B47146490840004900095ECA
:1010E80049008E4403BC7047537461636B20667279
:1010F800616D653A0A000000205230203D2020250D
:101108003038580A00000000205231203D202025A8
:101118003038580A00000000205232203D20202597
:101128003038580A00000000205233203D20202586
:101138003038580A0000000020523132203D202566
:101148003038580A00000000204C52203D2020254D
:101158003038580A00000000205043203D20202548
:101168003038580A0000000020505352203D2025F6
:101178003038580A000000004D6973630A00000007
:10118800204C522F4558435F52455455524E3D20EE
:10119800253038580A0000005B4861726446617562
:1011A8006C745D0A000000000000000000000000F0
:1011B800010203040607080948656C6C6F20417238
:1011C8006D20576F726C64210000000053797374AE
:1011D800656D20636C6F636B3A20257520487A0A29
:1011E800000000005365636F6E642025640A0023C5
:1011F8002D302B2000686C4C00656667454647001B
:101208003031323334353637383941424344454634
:1012180000303132333435363738396162636465CA
:0212280066005E
:10122C00785634126C00002000000000006CDC02C8
:10123C001400002000000000000000006800000006
:10124C00D0000000000000000000000000000000C2
:10125C000000000000000000000000000000000082
:10126C000000000000000000000000000000000072
:10127C000000000000000000000000000000000062
:04128C0032547698CA
:04000005080000B936
:00000001FF
