:020000040800F2
:10000000008000202F020008DB020008DD0200084B
:1000100000000000000000000000000000000000E0
:10002000000000000000000000000000DF020008E7
:100030000000000000000000E10200088307000843
:10004000430200084302000843020008430200087C
:10005000430200084302000843020008430200086C
:1000600000000000430200084302000843020008A9
:100070004302000843020008430200080000000099
:100080004302000843020008000000004302000889
:10009000430200084302000843020008430200082C
:1000A000430200084302000843020008430200081C
:1000B00043020008000000000000000000000000F3
:1000C00043020008000000004302000830B583B07E
:1000D00000F075F940F20003C2F200034BF6BA22B9
:1000E000CCF6DE221A6040F26003C2F200031A600E
:1000F00040F20003C2F2000341F23012C0F60002E7
:1001000001E002CA02C340F26401C2F200018B4264
:10011000F7D340F20003C2F200031A6845F2786395
:10012000C1F234239A4200D0FEE740F26003C2F2EB
:1001300000031A6845F23243C9F676039A42F3D1B6
:1001400040F26403C2F200034BF6BA22CCF6DE2280
:100150001A6040F20413C2F200031A6040F2640312
:10016000C2F2000301E0002204C340F20812C2F20E
:1001700000029342F7D340F26403C2F200031B680B
:100180002BB940F20413C2F200031B6803B1FEE76F
:1001900000F019F9694601A800F097F840F26C23C5
:1001A000C0F6000340F26C22C0F600029B1A9C10BD
:1001B000002507E040F26C23C0F60003AA00D358E4
:1001C00098470135AC42F5DC40F26C23C0F60003E1
:1001D00040F26C22C0F600029B1A9C10002507E03A
:1001E00040F26C23C0F60003AA00D35898470135AB
:1001F000AC42F5DC0099019800F05CFA050040F291
:100200006C24C0F6000440F26C23C0F60003E41A2C
:10021000A41007E0013C40F26C23C0F60003A200EA
:10022000D3589847002CF5DC280000F01FF810B5D3
:10023000FFF74CFF00BEFEE700BEFEE700BEFEE794
:040240007047FEE71E
:100244003011000800000020640000203011000874
:1002540000000010000000106400002008010020CD
:08026400000000100000001072
:10026C00FEE710B5030040F26802C2F20002126809
:10027C00A2B140F26802C2F20002106803330322FA
:10028C009343C31847F60042C2F2000293420FD8C0
:10029C0040F26802C2F20002136010BD40F2680224
:1002AC00C2F2000240F20811C2F200011160E0E754
:1002BC0000F09CFA0C23036001204042EDE701237F
:1002CC00036040F20403C2F200030B6070477047F6
:1002DC00FEE7704770474FF68073C1F6FF73194005
:1002EC0001434EF60053CEF200039960BFF34F8FDB
:1002FC007047F0B5CE46474680B585B004008846B9
:10030C00435623BB0425281C211CABDF051C40468F
:10031C0005B0C0BCB946B046F0BD0022A256694635
:10032C00CA5401330134AB42F7D3E94600224946A3
:10033C00CA540427381C4946ABDF071C761B002E19
:10034C00E5D03500102E00D910250023EBE70E0068
:10035C00F5E710B5FFF7CDFF10BD0FB400B583B0B6
:10036C0004AB04CB019340F27400C2F20000802174
:10037C0000F030FA002803DC03B008BC04B01847C6
:10038C0040F27403C2F2000301001800FFF7E1FF12
:10039C00F2E710B5040000F038FA01002000FFF776
:1003AC00D8FF41F2B000C0F600000121FFF7D1FFE9
:1003BC0010BD10B500F06EF810BD10B500F0F0F8DF
:1003CC0010BD41F20003C4F202031A6801210A4372
:1003DC001A600022013241F20003C4F202031B68CE
:1003EC009B0703D440F200539A42F3D141F200032D
:1003FC00C4F202031B689B0700D4FEE742F2000222
:10040C00C4F20202136807218B4305390B431360B6
:10041C0041F20403C4F202031A681A601A681A60E3
:10042C001A681A601A684FF6FF71CFF2C2710A404F
:10043C001A6019680022C0F604020A431A6041F2DD
:10044C000003C4F202031968802252040A431A60A2
:10045C0041F20003C4F202031B689B01F8D541F280
:10046C000403C4F202031A6803218A431A601A684F
:10047C0001390A431A6041F20403C4F202031A68F8
:10048C000C231340082BF6D1704710B5FFF799FFDA
:10049C0010BD000000B583B041F20003C4F20203AA
:1004AC001A6801210A431A6041F20003C4F20203E4
:1004BC001B689B07F8D541F20403C4F202031A68C7
:1004CC0080210A431A600023019302E0019B01334F
:1004DC000193019B7F2BF9D941F20403C4F202036F
:1004EC001A6890210A431A600023019302E0019BD1
:1004FC0001330193019B7F2BF9D941F20403C4F220
:10050C0002031A6803218A431A6041F20002C4F202
:10051C00020211684FF6FF70CFF6F26001401160D5
:10052C001A680C21C0F6FF010A401A601A684FF6CF
:10053C00FF71C7F2C2710A401A6041F22C03C4F277
:10054C0002031A680F218A431A6041F23003C4F285
:10055C0002031A6810490A401A601A680F490A40C7
:10056C001A601A68520052081A6041F23403C4F23D
:10057C0002031A6801218A431A6041F20803C4F28B
:10058C00020300221A60FFF780FF80200021000583
:10059C00FFF7A1FE03B000BDFCFEFFFFFFFFFEFF57
:1005AC0030B585B06A4641F2B403C0F600031800BA
:1005BC0038C838C20368136041F20403C4F2020362
:1005CC001A68920803231340012B28D0022B30D039
:1005DC004BB140F20C03C2F2000341F20022C0F214
:1005EC007A021A6008E040F20C03C2F2000341F2F6
:1005FC000022C0F27A021A6041F20403C4F2020330
:10060C001A6812090F2313406A46D15C40F20C039E
:10061C00C2F200031A68CA401A6005B030BD40F23D
:10062C000C03C2F2000341F20022C0F27A021A60FB
:10063C00E2E741F20402C4F202021168890C0F23B2
:10064C000B40126812011CD5113341F20402C4F2A2
:10065C0002021268D2031AD541F22C02C4F2020231
:10066C0012680F211140013141F20022C0F27A02CE
:10067C00B2FBF1F25A4340F20C03C2F200031A60CF
:10068C00BAE70F2B01D00233DFE71023DDE7590166
:10069C00C91A8A01521AD200D3181A0240F20C035A
:1006AC00C2F200031A60A7E710B541F2C400C0F60D
:1006BC000000FFF76EFE40F20C03C2F20003196853
:1006CC0041F2D800C0F60000FFF747FE00F02BF80F
:1006DC00002440F2E83000F033F8013441F2F0002D
:1006EC00C0F600002100FFF738FEF2E70138802346
:1006FC005B04984215D24EF21002CEF2000250600A
:10070C004EF60051CEF200010B6A1B021B0AC020F0
:10071C00000603430B620023936007331360002031
:10072C0070470120FCE710B540F20C03C2F2000345
:10073C00186840F2E833B0FBF3F0FFF7D7FF10BDB9
:10074C0040F2F403C2F20003186040F2F403C2F268
:10075C0000031B68002BF8D1704740F2F403C2F27F
:10076C0000031B6833B140F2F403C2F200031A68B1
:10077C00013A1A60704710B5FFF7EFFF10BD30B5A6
:10078C00140005001A009BB0002C05DA8B230360C3
:10079C00012040421BB030BD40F208236846009156
:1007AC0083810491002304B1631E029305930123FA
:1007BC0069465B42CB8128001E9B00F08FF8431CDE
:1007CC0001DA8B232B60002CE4D00022009B1A70E2
:1007DC00E0E7000007B5009313000A00010002488F
:1007EC000068FFF7CCFF0EBD10000020014B18680D
:1007FC007047C04610000020002310B59A4200D16B
:10080C0010BDCC5CC4540133F8E70023C25C013347
:10081C00002AFBD1581E7047F0B58E6885B01F00BA
:10082C000C000B6802900392BE4231D80C21625E20
:10083C0040F280410A4229D0032021695B1A0193BE
:10084C00636943430198DD0FED187B1C1B186D1079
:10085C00AB4200D91D00520529D52900029800F0A1
:10086C0045FB060000282DD0019A2169FFF7C4FF33
:10087C00A289194B1A4080231343A381019B266143
:10088C00F61826603E006561ED1AA560BE4200D9DF
:10089C003E0032000399206800F0A0FA0020A36803
:1008AC009B1BA36023689B19236005B0F0BD2A0035
:1008BC00029800F0A5FB06000028DFD12169029800
:1008CC0000F0AAFA0C230120029A40421360A2897C
:1008DC0034331343A381E8E77FFBFFFFF0B5A1B0EE
:1008EC00039004921D008B890F001B060FD50B691A
:1008FC006BB9402100F0FAFA3860386128B90C2342
:10090C00039A136001204042CFE040237B61002317
:10091C0008AC6361203363761033A3760795049E8D
:10092C0033780BB1252B46D1049BF51A9E420BD084
:10093C002B003900049A0398FFF76EFF013000D1A9
:10094C00AEE063695B1963613378002B00D1A7E0DB
:10095C00012200235242626004A95432521801361B
:10096C002360E360A3601370A365052231785448BB
:10097C0000F047FA751C00BB2268D30604D553233C
:10098C0004A95B1820211970130704D5532304A95B
:10099C005B182B21197033782A2B17D035000021C6
:1009AC0040F20A0C0126E3682A78681C303A092ABE
:1009BC004ED989B917E00136B2E7414B2268C01A0B
:1009CC000123834013432E002360CEE7079B191DA0
:1009DC001B680791002B01DB0B9304E05B42E36087
:1009EC000223134323602B782E2B0CD16B782A2BEC
:1009FC0034D1079B02351A1D1B680792002B01DAB4
:100A0C0001235B4209932F4E03223000297800F01A
:100A1C00F8F930B14023801B834022680135134321
:100A2C00236029786B1C062227480493217600F05A
:100A3C00E8F900283BD0254B33BB0722079B073333
:100A4C009343083307936369059A9B18636166E7C0
:100A5C0061464B43050031009B18A5E7002340F28B
:100A6C000A0C1A000126013563602978681C30399C
:100A7C00092903D9002BC6D00992C4E763465A430F
:100A8C00050033005218F0E707AB00933A00210041
:100A9C000F4B039800E000BF0590059B0133D2D1AA
:100AAC00BB890D985B0600D52CE721B0F0BD07ABD8
:100ABC0000933A002100064B039800F079F8EBE71D
:100ACC00FB100008011100080511000800000000CF
:100ADC0025080008F7B5160001938A680B690C000D
:100AEC000090934200DA13002200336043321278F4
:100AFC000AB10133336023689B0602D53368023395
:100B0C0033602268062315001D401A4227D02300AB
:100B1C0043331B785A1E93412268920630D422002C
:100B2C0001990098089D4332A847013025D0062230
:100B3C00236800251340042B05D13368E568ED1AB2
:100B4C00EB43DB171D40A3682269934201DD9B1A1E
:100B5C00ED180026B54220D1002010E00135E368E5
:100B6C0032689B1AAB42D2DD220001230199009816
:100B7C00089F1932B8470130F0D101204042FEBD28
:100B8C003020E1184331087021005A1C4531097896
:100B9C00A218433202331170C1E7220001230199DC
:100BAC000098089F1A32B8470130E6D00136D1E7D9
:100BBC00F0B50E0089B00492039005930C00097EE9
:100BCC000E9A4336782907D8622909D8002900D112
:100BDC00C8E0582900D1AEE025004235297022E04A
:100BEC00080063381528F7D800F052FA16001F00D9
:100BFC00F6FFF6FFF6FFF6FF1F00F6FFF6FFF6FF17
:100C0C00F6FFAF004D005C00F6FFF6FFC000F6FFEC
:100C1C004D00F6FFF6FF6000250013684235191DE4
:100C2C001B6811602B700123ADE013682068191D3F
:100C3C0005061DD51B6811606168002B00DB81E087
:100C4C0022002D2043321070A160002916DA0A22EE
:100C5C0060485B423500B3FBF2FC61465143591AC4
:100C6C00415C013D2970190063468A42F3D946E084
:100C7C001B6811604006DFD51BB2DDE7042122683A
:100C8C008A432260E3E71068256808C82F0602D45F
:100C9C006D0600D59BB2106008224E486F291BD000
:100CAC000A2219E0202321680B43236078214A484B
:100CBC002300453319701568216808CD0F0602D43E
:100CCC004F0600D59BB21560CA0702D520220A43F5
:100CDC002260002B31D010222100002543310D70F1
:100CEC006168A1600029B5DB40F2040C67462568F9
:100CFC00BD432560002BADD135000029AAD1082AAF
:100D0C0009D12368DB0706D5626823699A4202DCA5
:100D1C003023013D2B70761B2661059B210000932F
:100D2C000398049B07AAFFF7D5FE01302FD10120B1
:100D3C00404209B0F0BD2748BAE7202122688A4317
:100D4C002260C8E70A222348CAE713682568181DE1
:100D5C00616910601B682F0601D5196002E06D06F1
:100D6C00FBD51980002335002361D6E71368191DC4
:100D7C0011601D6800212800626800F042F808B17B
:100D8C00401B60606368236100233370C5E72A0051
:100D9C00236904990398059DA8470130C7D023689F
:100DAC009B0715D4079BE0689842C2DA1800C0E78D
:100DBC002200012304990398059E1932B047013093
:100DCC00B5D00135E368079A9B1AAB42F0DCE9E732
:100DDC000025F7E70C1100081D11000810B588421A
:100DEC0006D800239A4208D0CC5CC4540133F9E7EE
:100DFC008B189842F5D2013A00D210BD8B5C83540B
:100E0C00F9E7C9B28218904201D1002070470378EB
:100E1C008B42FBD00130F6E770B505000C0079B1C0
:100E2C00043C2368002B00DAE418280000F0D8F802
:100E3C001C4A13682BB963601460280000F0D8F8C2
:100E4C0070BDA34208D9206821188B42F3D11968D0
:100E5C005B6809182160EEE71A005B680BB1A342CE
:100E6C00FAD911685018A0420BD1206809185018F3
:100E7C0011608342E1D118685B68411811605360BE
:100E8C00DBE7A04202D90C232B60D6E7206821189F
:100E9C008B4203D119685B68091821606360546048
:100EAC00CBE7C046FC00002070B50F4E0D0031683A
:100EBC00040011B900F0D2F830602900200000F0D5
:100ECC00CDF8431C03D101256D42280070BD0323CE
:100EDC00C51C9D43A842F8D0291A200000F0BEF88A
:100EEC000130F2D1EFE7C046F80000200323F7B53C
:100EFC00CD1C9D43083506000C2D34D20C25A9427F
:100F0C0033D8364F300000F06BF83B681C00002CD7
:100F1C002FD129003000FFF7C7FF0400431C58D124
:100F2C003C682100002949D1002C4CD023683000AA
:100F3C00E318019300F092F8019B834243D123689C
:100F4C003000ED1A2900FFF7AFFF01303BD02368CA
:100F5C005B1923603B68002B3DD05A68A24230D10C
:100F6C0000225A6012E0002DC9DA0C2333600020F5
:100F7C00FEBD2168491B1ED40B2917D962192560A7
:100F8C00A34211D13A60636811605360300000F0E5
:100F9C002FF8200007220B30231D9043C21A9842D1
:100FAC00E6D01B1AA350E3E75A60ECE76268A34251
:100FBC00D7D13A60EAE723006468A8E70C004968D7
:100FCC00B0E71300C7E70C233000336000F010F8D3
:100FDC00CDE70560DAE75B60FFDEC046FC00002071
:100FEC0010B5024800F04AF810BDC04600010020C0
:100FFC0010B5024800F043F810BDC04600010020B7
:10100C00F7B506000C00150029B91100FFF76EFFAB
:10101C0004002000FEBD1AB9FFF7FEFE0024F8E71D
:10102C0000F02EF80700854202D84308AB42F0D3FB
:10103C0029003000FFF75AFF01900028EED02A005B
:10104C00BD4200D93A0021000198FFF7D5FB2100E1
:10105C003000FFF7E1FE019CDBE70000002370B5D8
:10106C00054D040008002B60FFF7FBF8431C02D170
:10107C002B6803B1236070BD70000020704770476F
:10108C000B1F1B68181F002B01DA0B58C018704778
:10109C0003B47146490840004900095E49008E447A
:1010AC0003BC70470A0000000000000000000000B4
:1010BC00010203040607080948656C6C6F20417235
:1010CC006D20576F726C64210000000053797374AB
:1010DC00656D20636C6F636B3A20257520487A0A26
:1010EC00000000005365636F6E642025640A0023C2
:1010FC002D302B2000686C4C006566674546470018
:10110C003031323334353637383941424344454631
:10111C0000303132333435363738396162636465C7
:02112C0066005B
:10113000785634126C0000200000000000A24A041F
:101140001400002000000000000000006800000003
:10115000D0000000000000000000000000000000BF
:10116000000000000000000000000000000000007F
:10117000000000000000000000000000000000006F
:10118000000000000000000000000000000000005F
:0411900032547698C7
:04000005080000CD22
:00000001FF
