:020000040800F2
:100000000000022065020008190400081B04000813
:100010001D0400081F04000821040008000000005F
:1000200000000000000000000000000023040008A1
:100030002504000800000000270400084D090008FE
:100040009103000891030008910300089103000840
:100050009103000891030008910300089103000830
:100060009103000891030008910300089103000820
:100070009103000891030008910300089103000810
:100080009103000891030008910300089103000800
:1000900091030008910300089103000891030008F0
:1000A00091030008910300089103000891030008E0
:1000B000000000009103000891030008910300086C
:1000C00091030008910300089103000891030008C0
:1000D00091030008910300089103000891030008B0
:1000E00091030008910300089103000891030008A0
:1000F0009103000891030008910300089103000890
:10010000910300089103000800000000910300081B
:10011000910300089103000891030008910300086F
:10012000910300089103000891030008910300085F
:100130009103000800000000000000009103000887
:10014000910300089103000891030008910300083F
:1001500000B583B000F050FA304B314A1360314A99
:100160001360314B314A03E052F8041B43F8041B7F
:100170002F498B42F8D32A4B1A682E4B9A4200D053
:10018000FEE7284B1A682C4B9A42F9D1234B2B4A95
:1001900013602B4A13602B4B02E0002243F8042B20
:1001A000294A9342F9D3254B1B6813B9244B1B688A
:1001B00003B1FEE700F02CFA694601A800F024F92B
:1001C000224C234BE41AA410002504E0204B53F8E2
:1001D000253098470135AC42F8DC1E4C1E4BE41A22
:1001E000A410002504E01C4B53F825309847013536
:1001F000AC42F8DC0099019800F058FB0546174C1A
:10020000174BE41AA41004E0013C154B53F82430BA
:100210009847002CF8DC284600F0D2F8BABADECABB
:1002200000000020740000200000002030140008AE
:1002300078000020785634123254769878000020E6
:10024000200100207800002024010020BC030008C9
:10025000BC030008BC030008BC030008BC03000882
:10026000BC03000808B5FFF773FF00BEFEE71EF0F1
:10027000040F0CBFEFF30880EFF309807146414A89
:1002800010472DE9F04182B004468846124B5E6B60
:100290009F6B9D6A1B6B13F0020F03D00E4BDB6A42
:1002A000002B0CDB0D4800F0F3F8CDF800803B4646
:1002B00032462946204600F015F900BEFEE74BF60F
:1002C000AB6100F089F90028ECD0034B4FF00042FD
:1002D000DA6202B0BDE8F08100ED00E0981300089A
:1002E00000BEFEE71EF0040F0CBFEFF30880EFF333
:1002F00009807146244A10472DE9F04182B0044636
:100300008846084B5E6B9F6B9D6A074800F0C0F8FB
:10031000CDF800803B4632462946204600F0E2F800
:1003200000BEFEE700ED00E0A81300081EF0040F79
:100330000CBFEFF30880EFF309807146134A1047B2
:100340002DE9F04182B004468846084B5E6B9F6BF6
:100350009D6A074800F09CF8CDF800803B46324685
:100360002946204600F0BEF800BEFEE700ED00E0A2
:10037000B413000800BEFEE700BEFEE700BEFEE7C5
:100380007047000083020008F902000841030008DA
:02039000FEE786
:100394003014000800000020780000203014000809
:1003A400000000100000001078000020240100204C
:0803B400000000100000001021
:1003C000FEE7000008B503460C4A12685AB10B4A12
:1003D0001068033323F003030344094A934206D809
:1003E000064A136008BD054A06491160EFE700F0B0
:1003F000B1FA0C2303604FF0FF30F3E77C000020DC
:1004000000FC01202401002001230360014B0B604C
:10041000704700BF040000207047FEE7FEE7FEE7DC
:10042000FEE77047704770472DE9F04385B00446FA
:100430000F46435633BB042528462146ABBE04462F
:10044000384605B0BDE8F08304AA1344002203F83F
:10045000102C4FF00408E94640464946ABBE8046A2
:10046000761B002EECD03546102E28BF1025002319
:10047000AB42E9D214F9011B04AA1A4402F8101C79
:100480000133F5E70E46ECE708B5FFF7CDFF08BDF1
:100490000FB400B583B004AB53F8042B0193802153
:1004A000074800F09FFA002804DC03B05DF804EB75
:1004B00004B0704701460248FFF7E6FFF5E700BFCA
:1004C0008400002010B5044600F058FA014620468A
:1004D000FFF7DAFF01210248FFF7D6FF10BD00BF8A
:1004E00014130008F8B504460D4617461E46274863
:1004F000FFF7CEFF21682648FFF7CAFF616825484D
:10050000FFF7C6FFA1682448FFF7C2FFE168234850
:10051000FFF7BEFF21692248FFF7BAFF6169214852
:10052000FFF7B6FFA1692048FFF7B2FFE1691F4856
:10053000FFF7AEFF1E48FFF7ABFF29461D48FFF748
:10054000A7FF1D4CE16A1D48FFF7A2FF216B1C4865
:10055000FFF79EFFE16B1B48FFF79AFF15F0800F36
:100560000AD115F4004F0CD11748FFF791FF0699F7
:100570001648FFF78DFFF8BD39461548FFF788FF8D
:10058000EFE731461348FFF783FFEDE77C120008E1
:100590008C1200089C120008AC120008BC12000863
:1005A000CC120008DC120008EC120008FC12000853
:1005B0000C1300081813000800ED00E028130008D1
:1005C0003813000848130008781300088013000847
:1005D000581300086813000883691A888A4201D0FA
:1005E000002070470268033A012A01D900207047B1
:1005F000023383610120704708B500F07DF8024A9C
:10060000024B9A6008BD00BF0000000800ED00E04A
:1006100008B500F0BDF808BD304A136843F0010387
:100620001360002301332D4A126812F0020F02D129
:10063000B3F5A06FF6D1294B1B6813F0020F00D160
:10064000FEE7274A136843F080531360254A136876
:1006500043F440431360244B1A681A601A681A6006
:100660001A6842F480621A601A6822F0C04222F4CA
:1006700070121A601A6842F0804242F410121A6036
:10068000164A136843F080731360144B1B6813F011
:10069000007FFAD0134A136843F480331360134B7E
:1006A0001B6813F4803FFAD00E4A136843F40033FA
:1006B00013600E4B1B6813F4003FFAD00A4B1A6804
:1006C00022F003021A601A6842F002021A60064B16
:1006D0001B6813F0080FFAD0704700BF00100240EB
:1006E0001C100240007000400410024004700040E2
:1006F00008B5FFF791FF08BD00B583B0214A136824
:1007000043F0010313601F4B1B6813F0020FFAD074
:100710001D4A136843F0800313600023019302E035
:10072000019B01330193019B4F2BF9D9164A1368A2
:1007300043F09003136000230193019B4F2B03D8D8
:10074000019B01330193F8E70F490B6823F0030382
:100750000B600C4A136823F0A85323F41023136092
:10076000136823F48023136000230B602C32136082
:10077000064B4FF47F021A60FFF7BAFF03B05DF833
:1007800004FB00BF001002400410024008100240A9
:100790003F4B1B68C3F38103012B0AD02BB1022B03
:1007A0000BD03C4B3C4A1A6070473A4B3A4A1A60AD
:1007B0007047384B394A1A607047354B1B6813F441
:1007C000803F4FD0364B1B6813F0804F46D1334AE1
:1007D000334B1B6813F4803F0ED0314B1968C1F3C3
:1007E000031101311B68C3F303230233112B37D0EC
:1007F000B2FBF1F203FB02F2294B1B6803F00F037B
:100800000133B2FBF3F222490B68C3F38343096857
:1008100011F0005F01D043F010031D49096811F089
:10082000804F01D043F020030E2B1DD901333D2B07
:1008300000D93F2302FB03F0164908600F2B15D0A7
:10084000134B1B681B0903F00F0113F0080F19D09D
:100850000B2913D8073902238B4014E0114AB7E75C
:100860001423C5E7104ACEE70233E0E702EB42016A
:100870004B0003EB520307490B60E1E70639022303
:100880008B4000E00123B2FBF3F2024B1A60704789
:10089000041002400C00002000127A0040787D0114
:1008A0002C100240006CDC0200093D0010B50A4823
:1008B000FFF708FE094B19680948FFF7E9FD00F04A
:1008C00013F800244FF47A7000F02CF8013421461C
:1008D0000448FFF7DDFDF5E7C41300080C00002015
:1008E000D8130008F01300080A4B1B680A4AA2FB41
:1008F00003239B09013BB3F1807F09D2074A536070
:10090000074BF02183F82310002393600723136023
:10091000704700BF0C000020D34D621010E000E0D3
:1009200000ED00E0034B1860024B1B68002BFBD16D
:10093000704700BF10010020034B1B681BB1024A27
:100940001368013B136070471001002008B5FFF7E2
:10095000F3FF08BD014B1868704700BF100000206E
:100960000A44914200F1FF3300D1704710B511F8ED
:10097000014B03F8014F9142F9D110BD034613F822
:10098000012B002AFBD1181A0138704730B5141E0C
:1009900005469BB0184605DA8B232B604FF0FF30DD
:1009A0001BB030BD4FF40273ADF80C3014BF04F12E
:1009B000FF332346029305934FF6FF730091049192
:1009C000ADF80E3002461E9B6946284600F074F8CA
:1009D000431CBCBF8B232B60002CE1D0009B00226A
:1009E0001A70DDE707B5009313460A46014603482F
:1009F0000068FFF7CBFF03B05DF804FB1000002098
:100A00002DE9F0478E689E4282460C4691469846F4
:100A100038D8B1F80CC01CF4906F31D062692568E9
:100A2000096902EB42026F1A02EBD27201335510D0
:100A30003B449D4238BF1D461CF4806F30D0294690
:100A400000F076FB064650B90C23CAF80030A389A3
:100A500043F04003A3814FF0FF30BDE8F0873A46F2
:100A60002169FFF77DFFA38923F4906343F080039E
:100A7000A381266165613E44ED1B2660A560464664
:100A8000464500D9464632464946206800F0E8FA15
:100A9000A3689B1BA36023681E4426600020DCE73C
:100AA0002A4600F09FFB06460028E2D12169504605
:100AB00000F0F0FAC8E700002DE9F04F1E468B89E0
:100AC0001B069DB007460D4614460ED50B6963B94B
:100AD000402100F02DFB2860286120B90C233B60E9
:100AE0004FF0FF30C9E040236B61002309932023BE
:100AF0008DF82930DFF89C91039630238DF82A3049
:100B00004FF0010A23461E4613F8012B0AB1252A8D
:100B1000F9D1B6EB040B0BD05B462246294638468A
:100B2000FFF76EFF013000F0A380099B5B4409933F
:100B30003378002B00F09C8000234FF0FF32CDE98A
:100B400005230136049307938DF853301A933446E6
:100B5000052214F8011B4F4800F032FA049BC0B97B
:100B6000D90644BF20228DF853201A0744BF2B22F8
:100B70008DF8532032782A2A13D0079A3446002061
:100B80000A26214611F8013B303B092B4BD970B99D
:100B900014E0A0EB09000AFA00F01843049026467E
:100BA000D5E7039A111D12680391002A01DB079211
:100BB00004E0524243F002030792049323782E2B61
:100BC0000CD163782A2B33D1039B1A1D1B68039227
:100BD000002BB8BF4FF0FF33023405932E4E21781F
:100BE0000322304600F0ECF938B14023801B03FAB1
:100BF00000F0049B03430134049314F8011B2748BD
:100C00008DF82810062200F0DBF9002838D0244B9C
:100C100013BB039B073323F0070308330393099B9C
:100C2000434409936EE706FB023201200C46A8E715
:100C300000230134059319460A26204610F8012B9B
:100C4000303A092A03D9002BC8D00591C6E706FB24
:100C5000012101230446F0E703AB00932A46114B20
:100C600004A93846AFF30080B0F1FF3F8046D6D1EB
:100C7000AB895B063FF534AF09981DB0BDE8F08F36
:100C800003AB00932A46074B04A9384600F082F8CC
:100C9000EAE700BFFC13000802140008061400086D
:100CA00000000000010A00082DE9F04791461F46A8
:100CB0008A680B69DDF820809342B8BF1346C9F8F3
:100CC000003091F8432006460C4612B10133C9F8B2
:100CD00000302368990642BFD9F800300233C9F8C2
:100CE0000030256815F0060507D104F1190AE368FC
:100CF000D9F800209B1AAB4228DC94F843302268D4
:100D0000003318BF012392062DD404F14302394663
:100D10003046C047013020D02368E568D9F800206C
:100D200003F00603042B08BFAD1AA36822690CBFA9
:100D300025EAE57500259342C4BF9B1AED184FF0D4
:100D400000091A344D451AD1002008E0012352460B
:100D500039463046C047013003D14FF0FF30BDE87F
:100D6000F0870135C3E7E1185A1C302081F84300B1
:100D7000224494F8451082F843100233C5E701235A
:100D8000224639463046C0470130E6D009F1010914
:100D9000D8E700002DE9F04306460C4601F1430078
:100DA000097E85B06E29984617460C9B00F0BA80E4
:100DB00024D8632939D00AD8002900F0C3805829E3
:100DC00000F0918004F1420584F8421035E0642976
:100DD00001D06929F6D125681A6815F0800F02F153
:100DE00004012CD012681960002A03DA2D23524224
:100DF00084F84330DFF8BCC10A233FE0732900F0D8
:100E0000A58008D86F2921D07029DBD1226842F053
:100E10002002226003E0752918D07829D2D17822E7
:100E200084F84520DFF890C161E01A68111D19604F
:100E3000136884F8423004F14205012393E01268FC
:100E4000196015F0400F18BF12B2CDE7D4F800C0FA
:100E50001A681CF0800F02F104051D6001D01268B1
:100E600003E01CF0400FFAD01288DFF848C16F2968
:100E70000CBF08230A23002184F843106568A5608D
:100E8000002DA2BF216821F0040121600AB9002DC4
:100E900046D00546B2FBF3F103FB112E93421CF83A
:100EA0000EE005F801ED39D9082B0BD12368DA07DC
:100EB00008D5236962689A42DEBF302305F8013CF9
:100EC00005F1FF35401B2061CDF800803B4603AAA9
:100ED00021463046FFF7E8FE013049D14FF0FF30A0
:100EE00005B0BDE8F083DFF8CCC084F845101D687C
:100EF000216855F8042B1D600D060BD5CD0744BFA6
:100F000041F0200121601AB9236823F020032360F7
:100F10001023B0E74B0648BF92B2EFE70A46B9E7A5
:100F20000546C1E71A68D4F800C06169151D1D6047
:100F30001CF0800F136801D0196003E01CF0400F13
:100F4000FAD01980002323610546BDE71A68111DF8
:100F50001960156862680021284600F031F808B170
:100F6000401B606063682361002384F84330ABE773
:100F700023692A4639463046C0470130AED023683F
:100F80009B0713D4E068039B9842B8BF1846A7E7B5
:100F900001234A4639463046C04701309ED00135CC
:100FA000E368039A9B1AAB42F2DCEBE7002504F1FD
:100FB0001909F5E70D1400081E14000800000000D0
:100FC00001F0FF01102A2BDB10F0070F08D010F8FA
:100FD000013B013A8B422DD010F0070F42B3F6D1FE
:100FE000F0B441EA012141EA014122F007047FF017
:100FF00000070023F0E80256083C85EA010586EA6E
:10100000010685FA47F5A3FA87F586FA47F6A5FAA9
:1010100087F68EB9EED1F0BC01F0FF0102F00702B5
:1010200032B110F8013B013A83EA010313B1F8D160
:101030000020704701387047002D06BF3546033841
:10104000073815F0010F07D1013015F4807F02BF7A
:10105000013015F4C03F0130F0BC0138704700BFCB
:10106000884210B501EB020302D983421C4607D81F
:10107000421E994208D011F8014B02F8014FF8E7DF
:1010800083189A1A9A4200D110BD14F8011D03F872
:10109000011DF7E738B50546002945D051F8043C55
:1010A0000C1F002BB8BFE41800F0D2F81F4A1368D9
:1010B000104633B9636014602846BDE8384000F03C
:1010C000CDB8A3420CD921686218934204BF1A68B4
:1010D0005B68636004BF521822600460ECE713464B
:1010E0005A680AB1A242FAD919685818A0420BD11D
:1010F00020680144581882421960DDD11068526896
:101100005A6001441960D7E702D90C232B60D3E75A
:10111000206821188A4204BF11685268626004BFC7
:10112000091821605C60C7E738BD00BF04010020DA
:10113000F8B5CD1C25F0030508350C2D38BF0C255E
:10114000002D064601DBA94203D90C2333600020A1
:10115000F8BD00F07DF821490A6814469CB9204F7B
:101160003B6823B92146304600F062F838602946D2
:10117000304600F05DF8431C23D10C233360304629
:1011800000F06CF8E3E723685B1B17D40B2B03D943
:1011900023601C44256004E06368A2420CBF0B601E
:1011A0005360304600F05AF804F10B00231D20F084
:1011B0000700C21ACCD01B1AA350C9E722466468A4
:1011C000CCE7C41C24F00304A042E3D0211A30462B
:1011D00000F02EF80130DDD1CFE700BF0401002080
:1011E00008010020F8B5074614460E4621B91146FD
:1011F000BDE8F840FFF79CBF22B9FFF74BFF25463B
:101200002846F8BD00F030F8A0420FD221463846FB
:10121000FFF78EFF05460028F2D031462246FFF741
:101220009FFB31463846FFF735FFE9E73546E7E7EC
:1012300038B5064C0023054608462360FFF7C2F880
:10124000431C02D1236803B12B6038BD0C01002080
:10125000014800F011B800BF18010020014800F05B
:101260000CB800BF1801002051F8043C181F002BD7
:10127000BCBF0B58C0187047704770475374616308
:101280006B206672616D653A0A00000020523020C2
:101290003D2020253038580A00000000205231201F
:1012A0003D2020253038580A00000000205232200E
:1012B0003D2020253038580A0000000020523320FD
:1012C0003D2020253038580A0000000020523132DD
:1012D000203D20253038580A00000000204C5220C4
:1012E0003D2020253038580A0000000020504320BF
:1012F0003D2020253038580A00000000205053526D
:10130000203D20253038580A000000004653522F57
:101310004641523A0A0000002043465352203D20E5
:1013200020253038580A00002048465352203D20DE
:1013300020253038580A00002044465352203D20D2
:1013400020253038580A00002041465352203D20C5
:1013500020253038580A0000204D4D464152203D8E
:1013600020253038580A00002042464152203D20B6
:1013700020253038580A00004D6973630A000000C8
:10138000204C522F4558435F52455455524E3D20F4
:10139000253038580A0000005B4861726446617568
:1013A0006C745D0A000000005B4275734661756CE9
:1013B000745D0A005B55736167654661756C745DA9
:1013C0000A00000048656C6C6F2041726D20576FF9
:1013D000726C64210000000053797374656D2063A2
:1013E0006C6F636B3A20257520487A0A0000000074
:1013F0005365636F6E642025640A0000232D302B33
:101400002000686C4C006566674546470030313205
:10141000333435363738394142434445460030315C
:0F142000323334353637383961626364656600BC
:10143000785634128000002000000000007A030A71
:101440001400002000000000000000000000000068
:10145000000000000000000000000000000000008C
:10146000000000000000000000000000000000007C
:10147000000000000000000000000000000000006C
:10148000000000000000000000000000000000005C
:10149000000000000000000000000000000000004C
:0814A0000000000032547698B0
:04000005080001519D
:00000001FF
