:020000040800F2
:100000000000012045020008F9030008FB03000876
:10001000FD030008FF0300080104000800000000C1
:1000200000000000000000000000000003040008C1
:10003000050400080000000007040008D1080008BB
:1000400071030008710300087103000871030008C0
:1000500071030008710300087103000871030008B0
:1000600071030008710300087103000871030008A0
:100070007103000871030008710300087103000890
:100080007103000871030008710300087103000880
:100090007103000871030008710300087103000870
:1000A0007103000871030008710300087103000860
:1000B0007103000871030008710300087103000850
:1000C0007103000871030008710300087103000840
:1000D0007103000871030008710300087103000830
:1000E0007103000871030008710300087103000820
:1000F0007103000871030008710300087103000810
:1001000071030008710300087103000871030008FF
:1001100071030008710300087103000871030008EF
:1001200071030008710300087103000871030008DF
:1001300000B583B000F052FA304B314A1360314AB7
:100140001360314B314A03E052F8041B43F8041B9F
:100150002F498B42F8D32A4B1A682E4B9A4200D073
:10016000FEE7284B1A682C4B9A42F9D1234B2B4AB5
:1001700013602B4A13602B4B02E0002243F8042B40
:10018000294A9342F9D3254B1B6813B9244B1B68AA
:1001900003B1FEE700F02EFA694601A800F024F949
:1001A000224C234BE41AA410002504E0204B53F802
:1001B000253098470135AC42F8DC1E4C1E4BE41A42
:1001C000A410002504E01C4B53F825309847013556
:1001D000AC42F8DC0099019800F02CFB0546174C66
:1001E000174BE41AA41004E0013C154B53F82430DB
:1001F0009847002CF8DC284600F0D2F8BABADECADC
:10020000000000206000002000000020741400089E
:10021000640000207856341232547698640000202E
:100220000401002064000020080100209C03000855
:100230009C0300089C0300089C0300089C03000822
:100240009C03000808B5FFF773FF00BEFEE71EF031
:10025000040F0CBFEFF30880EFF309807146414AA9
:1002600010472DE9F04182B004460D46124B5F6BFA
:10027000D3F838809E6A1B6B13F0020F03D00E4B2D
:10028000DB6A002B0BDB0D4800F0F4F800954346C9
:100290003A463146204600F017F900BEFEE74BF61D
:1002A000AB6100F08BF90028EDD0034B4FF000421A
:1002B000DA6202B0BDE8F08100ED00E0CC13000886
:1002C00000BEFEE71EF0040F0CBFEFF30880EFF353
:1002D00009807146244A10472DE9F04182B0044656
:1002E0000D46084B5F6BD3F838809E6A064800F0D5
:1002F000C1F8009543463A463146204600F0E4F8FE
:1003000000BEFEE700ED00E0DC1300081EF0040F65
:100310000CBFEFF30880EFF309807146134A1047D2
:100320002DE9F04182B004460D46084B5F6BD3F8CF
:1003300038809E6A064800F09DF8009543463A468C
:100340003146204600F0C0F800BEFEE700ED00E0B8
:10035000E813000800BEFEE700BEFEE700BEFEE7B1
:100360007047000063020008D9020008210300085A
:02037000FEE7A6
:1003740074140008000000206400002074140008B5
:10038400000000100000001064000020080100209C
:08039400000000100000001041
:1003A000FEE7000008B503460C4A12685AB10B4A32
:1003B0001068033323F003030344094A934206D829
:1003C000064A136008BD054A06491160EFE700F0D0
:1003D000BDFA0C2303604FF0FF30F3E76800002004
:1003E00000FC00200801002001230360014B0B608A
:1003F000704700BF040000207047FEE7FEE7FEE7FD
:10040000FEE77047704770472DE9F04385B004461A
:100410000F4643563BBB042528462146ABBE054646
:10042000384605B0BDE8F08314F901CB03F11002A2
:100430006A4402F810CC0133AB42F5D310336B445D
:10044000002203F8102C4FF00408E94640464946C4
:10045000ABBE8046761B002EE2D03546102E28BF5C
:1004600010250023E8E70E46F5E708B5FFF7CCFFB7
:1004700008BD00000FB400B583B004AB53F8042BE3
:1004800001938021074800F053FA002804DC03B0F0
:100490005DF804EB04B0704701460248FFF7E5FF42
:1004A000F5E700BF7400002010B5044600F062FAC2
:1004B00001462046FFF7D9FF01210248FFF7D5FF8B
:1004C00010BD00BF48130008F8B504460D46174696
:1004D0001E462748FFF7CEFF21682648FFF7CAFFD0
:1004E00061682548FFF7C6FFA1682448FFF7C2FFEF
:1004F000E1682348FFF7BEFF21692248FFF7BAFFF2
:1005000061692148FFF7B6FFA1692048FFF7B2FFF4
:10051000E1691F48FFF7AEFF1E48FFF7ABFF294612
:100520001D48FFF7A7FF1D4CE16A1D48FFF7A2FF1A
:10053000216B1C48FFF79EFFE16B1B48FFF79AFFFA
:1005400015F0800F0AD115F4004F0CD11748FFF7B2
:1005500091FF06991648FFF78DFFF8BD39461548FB
:10056000FFF788FFEFE731461348FFF783FFEDE71A
:10057000B0120008C0120008D0120008E0120008F3
:10058000F0120008001300081013000820130008E0
:1005900030130008401300084C13000800ED00E081
:1005A0005C1300086C1300087C130008AC130008EF
:1005B000B41300088C1300089C13000883691A8880
:1005C0008A4201D0002070470268033A012A01D90B
:1005D00000207047023383610120704708B500F0A6
:1005E0007DF8024A024B9A6008BD00BF0000000877
:1005F00000ED00E008B500F0B5F808BD334A136817
:1006000043F48033136000230133304A126812F43C
:10061000003F03D14FF6FF729342F5D12B4B1B687D
:1006200013F4003F00D1FEE7284BDA6942F0805214
:10063000DA6127490A6842F440420A605A685A60FF
:100640005A685A605A6842F480625A605A6822F4C2
:1006500040325A605A6842F440325A605A6822F076
:10066000904222F470125A605A6842F0036242F4D7
:1006700080225A601A6842F080721A60134B1B681D
:1006800013F0007FFAD0124A136843F480331360EA
:100690000F4B5B6813F4803FFAD00D4A136843F4A4
:1006A000003313600A4B5B6813F4003FFAD0074B2A
:1006B0005A6822F003025A605A6842F002025A60F5
:1006C000024B5B6813F0080FFAD07047001002402D
:1006D0000070004008B5FFF791FF08BD00B583B07A
:1006E0001F4A136843F0010313601D4B1B6813F08E
:1006F000020FFAD01A4A536843F080035360002374
:10070000019302E0019B01330193019B4F2BF9D927
:10071000134A536843F0900353600023019302E0AF
:10072000019B01330193019B4F2BF9D90C4B5A6864
:1007300022F003025A601A6822F0847222F4803296
:100740001A604FF41F029A601A6822F480221A601D
:1007500000225A60DA62FFF7BDFF03B05DF804FBC8
:100760000010024084B02D4B0FCB0DF1100C0CE9A2
:100770000F002B4B5B68C3F38103012B17D0022BB7
:1007800019D01BB1274B284A1A6002E0254B264A94
:100790001A60234B5B68C3F3031310336B4413F8E5
:1007A000101C204A1368CB40136004B070471D4BE7
:1007B0001D4A1A60EDE71A4B5B6813F4803F0ED0B8
:1007C000174BDB6A13F0804F07D11749144B5B6856
:1007D00013F4003F04D0490802E01449F6E7144935
:1007E0000F4A5368C3F38343526812F0006F01D07D
:1007F00043F010030A4A526812F0804F0AD043F0C7
:10080000200301333D2B00D93F2301FB03F3054AAD
:100810001360BEE70E2BF4D80233F3E7F813000899
:10082000001002400C00002000127A00006CDC0274
:1008300000093D0010B50A48FFF736FE094B19685C
:100840000948FFF717FE00F013F800244FF47A7000
:1008500000F02AF8013421460448FFF70BFEF5E7C3
:10086000081400080C0000201C14000834140008B0
:100870000A4B1B680A4AA2FB03239B09013BB3F105
:10088000807F0AD24FF0E0225361064BF02183F8BB
:100890002310002393610723136170470C0000208D
:1008A000D34D621000ED00E0034B1860024B1B6853
:1008B000002BFBD1704700BFF4000020034B1B68E6
:1008C0001BB1024A1368013B13607047F40000201B
:1008D00008B5FFF7F3FF08BD30B51446002C9BB0F8
:1008E00005461A4605DA8B2303604FF0FF301BB034
:1008F00030BD4FF40273ADF80C3014BF04F1FF3378
:100900002346029305934FF6FF7300910491ADF8CF
:100910000E3069461E9B00F091F8431CBCBF8B2330
:100920002B60002CE3D0009B00221A70DFE7000050
:1009300007B5009313460A46014603480068FFF7CF
:10094000CBFF03B05DF804FB10000020014B1868DA
:10095000704700BF100000200A44914200F1FF33AD
:1009600000D1704710B511F8014B03F8014F9142C7
:10097000F9D110BD034613F8012B002AFBD1181A38
:10098000013870472DE9F0478E681F46BE420B685C
:1009900082460C4690462DD8B1F90C2012F4906F87
:1009A00026D06569096905EB4505A3EB010905EB4F
:1009B000D5757B1C4B446D109D4238BF1D465305B9
:1009C00027D5294600F0A8FB064660B321694A46B0
:1009D000FFF7C2FFA38923F4906343F08003A38150
:1009E000266165614E44A5EB09052660A5603E467B
:1009F000BE4200D93E4620683246414600F0B4FA75
:100A0000A3689B1BA3602368334423600020BDE8D8
:100A1000F0872A4600F004FC06460028E0D1216950
:100A2000504600F00DFB0C23CAF80030A38943F0B8
:100A30004003A3814FF0FF30E9E700002DE9F04FBC
:100A400098468B891B069DB007460D46144610D567
:100A50000B6973B9402100F05FFB2860286130B951
:100A60000C233B604FF0FF301DB0BDE8F08F4023FA
:100A70006B610023099320238DF82930CDF80C8079
:100A80003023DFF89C818DF82A304FF0010923468E
:100A90009A4613F8012B0AB1252AF9D1BAEB040BB7
:100AA0000BD05B46224629463846FFF76BFF0130E4
:100AB00000F0A780099A5A4409929AF80030002B56
:100AC00000F09F8000234FF0FF32CDE905230AF1AB
:100AD000010A049307938DF853301A935446052264
:100AE00014F8011B4E4800F05BFA049AD8B9D006FE
:100AF00044BF20238DF85330110744BF2B238DF8BA
:100B000053309AF800302A2B15D0079A544600200B
:100B10004FF00A0C214611F8013B303B092B4BD911
:100B2000B0B1079214E0A0EB080309FA03F31343F2
:100B30000493A246D2E7039B191D1B680391002B67
:100B4000BBBF5B4242F0020207930793B8BF049217
:100B500023782E2B0AD163782A2B32D1039B1A1DBE
:100B60001B68039243EAE37302340593DFF8B4A0F1
:100B700021780322504600F013FA38B1049BA0EB11
:100B80000A004022824013430134049314F8011BED
:100B900025488DF82810062200F002FA002836D0E9
:100BA000224B1BBB039B073323F00703083303933C
:100BB000099B334409936AE70CFB02320C4601207F
:100BC000A8E700230134059319464FF00A0C20468C
:100BD00010F8012B303A092A03D9002BC6D0059111
:100BE000C4E70CFB012104460123F0E703AB0093AB
:100BF0002A460F4B04A93846AFF30080421C064634
:100C0000D6D1AB895B063FF52DAF09982CE703AB36
:100C100000932A46064B04A9384600F079F8EDE720
:100C20003F140008451400084914000800000000A3
:100C3000850900082DE9F047164698468A680B6931
:100C4000DDF820909342B8BF1346336091F84320FB
:100C500007460C460AB1013333602368990642BF48
:100C6000336802333360256815F0060506D104F1B8
:100C7000190AE36832689B1AAB4226DC94F84330C9
:100C80002268003B18BF012392062BD404F14302D3
:100C900041463846C84701301ED02368226903F018
:100CA0000603042B02BFE5683368ED1AA3680CBF86
:100CB00025EAE57500259342C4BF9B1AED1800266E
:100CC0001A34B5421AD1002008E0012352464146A9
:100CD0003846C847013003D14FF0FF30BDE8F087F8
:100CE0000135C6E7E1185A1C302081F84300224440
:100CF00094F8451082F843100233C7E701232246D7
:100D000041463846C8470130E6D00136D9E70000F1
:100D10002DE9FF470F7E0C9E782F914680460C46AA
:100D20009A4601F1430207D8622F0AD8002F00F03B
:100D3000DD80582F00F0C38004F1420684F8427031
:100D40003AE0A7F16303152BF6D801A151F823F07F
:100D5000A90D0008BD0D0008390D0008390D000867
:100D6000390D0008390D0008BD0D0008390D0008C7
:100D7000390D0008390D0008390D0008D30E0008A0
:100D80004B0E00088B0E0008390D0008390D0008C5
:100D9000F50E0008390D00084B0E0008390D00084B
:100DA000390D0008930E000833681A1D1B68326065
:100DB00004F1420684F842300123A8E03168236838
:100DC000081D30601E0601D50D6803E05D06FBD5E9
:100DD000B1F900506168002D78DA2D20002984F8DF
:100DE0004300A1602DDA5E486D420A231646B5FB2A
:100DF000F3F103FB1157C75D06F8017D2F46BB4297
:100E00000D46F4D9082B0BD12368DF0708D52369D9
:100E100061689942DEBF302306F8013C06F1FF36D7
:100E2000921B2261CDF800A04B4603AA2146404602
:100E3000FFF700FF01306FD14FF0FF3004B0BDE885
:100E4000F08723F004032360CDE7216833680806A8
:100E500053F8045B02D4490648BFADB26F2F404837
:100E6000336014BF0A230823002184F84310666806
:100E7000A660002EBADB216821F004012160002D5C
:100E8000B4D1002EB2D11646BCE7236843F020034C
:100E900023603448782784F84570236831681F063A
:100EA00051F8045B02D45F0648BFADB23160D90788
:100EB00044BF43F0200323601DB11023D4E728482A
:100EC000E9E7236823F020032360F6E724480A2398
:100ED000CDE7336825686169181D30602E061B68F0
:100EE00001D5196002E06806FBD519800023236153
:100EF000164697E733681A1D32601E686268002143
:100F0000304600F04DF808B1801B606063682361D3
:100F1000002384F8433085E723693246494640463A
:100F2000D047013088D023689B0714D4E068039B26
:100F30009842B8BF184681E70123324649464046E9
:100F4000D04701303FF478AF0135E36803995B1A6D
:100F5000AB42F1DCEAE7002504F11906F5E700BF32
:100F60005014000861140008884210B501EB020417
:100F700002D98442234607D8431EA14208D011F863
:100F8000012B03F8012FF8E7024401468A4200D101
:100F900010BD13F8014D02F8014DF7E70000000005
:100FA00001F0FF01102A2BDB10F0070F08D010F81A
:100FB000013B013A8B422DD010F0070F42B3F6D11E
:100FC000F0B441EA012141EA014122F007047FF037
:100FD00000070023F0E80256083C85EA010586EA8E
:100FE000010685FA47F5A3FA87F586FA47F6A5FACA
:100FF00087F68EB9EED1F0BC01F0FF0102F00702D6
:1010000032B110F8013B013A83EA010313B1F8D180
:101010000020704701387047002D06BF3546033861
:10102000073815F0010F07D1013015F4807F02BF9A
:10103000013015F4C03F0130F0BC0138704700BFEB
:1010400038B50546002941D051F8043C0C1F002B4F
:10105000B8BFE41800F0D8F81D4A136833B96360CC
:1010600014602846BDE8384000F0D4B8A34208D93F
:10107000206821188B4201BF19685B68091821603C
:10108000EDE71A465B680BB1A342FAD91168501814
:10109000A0420BD120680144501883421160E0D176
:1010A00018685B68536008441060DAE702D90C23C3
:1010B0002B60D6E7206821188B4204BF19685B6853
:1010C000636004BF091821605460CAE738BD00BFDF
:1010D000FC00002070B50F4E0C463168054611B972
:1010E00000F0CCF830602146284600F0C7F8431CD9
:1010F00003D14FF0FF34204670BDC41C24F003041C
:10110000A042F8D0211A284600F0B8F80130F2D1F8
:10111000EFE700BFF80000202DE9F041CD1C25F0DD
:10112000030508350C2D38BF0C25002D064601DBC4
:10113000A94204D90C2333600020BDE8F081314F6F
:1011400000F062F83B681C4644BB29463046FFF776
:10115000C1FF431C044650D13C682146002941D1BF
:10116000002C44D02368304604EB030800F086F8D6
:1011700080453CD121686D1A29463046FFF7AAFF09
:10118000013034D023682B4423603B68002B36D0D9
:101190005A68A24229D100225A600EE02268521BEE
:1011A0001DD40B2A16D96119A342256018BF5960B6
:1011B000636808BF396062514B60304600F02AF81E
:1011C00004F10B00231D20F00700C21AB5D01B1A32
:1011D000A350B2E7A3426268DED13A60EDE723464E
:1011E0006468B1E70C464968B8E71346CEE70C23BC
:1011F0003360304600F00EF89EE70560DDE75B6087
:10120000FFDE00BFFC000020014800F047B800BF2F
:1012100000010020014800F042B800BF000100209A
:101220002DE9F041804615460C4621B9BDE8F04154
:101230001146FFF771BF2AB9FFF702FF00242046CD
:10124000BDE8F08100F02CF88542064602D8B5EBE7
:10125000500FF4D829464046FFF75EFF07460028A6
:10126000ECD0B5422A46214628BF3246FFF774FB30
:1012700021464046FFF7E4FE3C46E0E738B5064D20
:101280000023044608462B60FFF78CF8431C02D16C
:101290002B6803B1236038BD700000207047704791
:1012A00051F8043C181F002BBCBF0B58C0187047E6
:1012B000537461636B206672616D653A0A000000C9
:1012C000205230203D2020253038580A00000000F0
:1012D000205231203D2020253038580A00000000DF
:1012E000205232203D2020253038580A00000000CE
:1012F000205233203D2020253038580A00000000BD
:1013000020523132203D20253038580A000000009C
:10131000204C52203D2020253038580A0000000083
:10132000205043203D2020253038580A000000007E
:1013300020505352203D20253038580A000000002C
:101340004653522F4641523A0A000000204346536A
:1013500052203D2020253038580A000020484653AE
:1013600052203D2020253038580A000020444653A2
:1013700052203D2020253038580A00002041465395
:1013800052203D2020253038580A0000204D4D467F
:101390004152203D20253038580A00002042464165
:1013A00052203D2020253038580A00004D697363D3
:1013B0000A000000204C522F4558435F52455455B7
:1013C000524E3D20253038580A0000005B486172BB
:1013D000644661756C745D0A000000005B427573C1
:1013E0004661756C745D0A005B55736167654661A3
:1013F000756C745D0A000000000000000000000031
:10140000010203040607080948656C6C6F204172ED
:101410006D20576F726C6421000000005379737463
:10142000656D20636C6F636B3A20257520487A0ADE
:10143000000000005365636F6E642025640A00237A
:101440002D302B2000686C4C0065666745464700D0
:1014500030313233343536373839414243444546EA
:101460000030313233343536373839616263646580
:02147000660014
:10147400785634126C00002000000000000E27078C
:1014840014000020000000000000000068000000BC
:10149400D000000000000000000000000000000078
:1014A4000000000000000000000000000000000038
:1014B4000000000000000000000000000000000028
:1014C4000000000000000000000000000000000018
:0414D4003254769880
:0400000508000131BD
:00000001FF
